:020000021000EC
:1090000000600020759301005D9301005F930100F3
:10901000619301006393010065930100000000006B
:109020000000000000000000000000006793010045
:1090300069930100000000006B9301006D93010033
:1090400079BB01006F93010045C101006F930100DE
:109050006F9301000000000065BF010069C20100BC
:109060008DC80100A5C801006F9301006F93010036
:109070006F9301006F9301006F9301006F930100E4
:109080006F930100FDA201006F9301006F93010037
:10909000B1A301006F930100452202006F9301000C
:1090A0006F9301006F9301000000000000000000BA
:1090B0006F9301006F9301000000000000000000AA
:1090C00000000000000000000000000000000000A0
:1090D0000000000000000000000000000000000090
:1090E0000000000000000000000000000000000080
:1090F0000000000000000000000000000000000070
:10910000000000000000000000000000000000005F
:10911000000000000000000000000000000000004F
:10912000000000000000000000000000000000003F
:10913000000000000000000000000000000000002F
:10914000000000000000000000000000000000001F
:10915000000000000000000000000000000000000F
:1091600000000000000000000000000000000000FF
:1091700000000000000000000000000000000000EF
:1091800000000000000000000000000000000000DF
:1091900000000000000000000000000000000000CF
:1091A00000000000000000000000000000000000BF
:1091B00000000000000000000000000000000000AF
:1091C000000000000000000000000000000000009F
:1091D000000000000000000000000000000000008F
:1091E000000000000000000000000000000000007F
:1091F000000000000000000000000000000000006F
:10920000354936480A1A02D0072291438D4634491F
:1092100034480A1A06D00722914381F309880222B2
:1092200082F3148830483149314A00F044F831481B
:109230003149324A00F03FF831483249324A00F0B1
:109240003AF832483249334A00F035F83248334967
:10925000334A00F030F833483349344A00F02BF8F1
:1092600033483449344A00F026F83448344900225F
:1092700000F02CF833483449002200F027F8334836
:109280003349091A082902DB002202604160314A91
:1092900090471F481F49884205D00268043003B434
:1092A000904703BCF7E700208646EC4600200021EB
:1092B000294A9047FEE7884207D0521A05D0037822
:1092C00001300B700131013AF9D17047884202D068
:1092D00002700130FAE7704700600020005800205B
:1092E0000060002000600020D88B020014250020C0
:1092F00094250020C0930100C093010090740200E7
:10930000D88B0200142500201425002010760200BE
:10931000107602001076020010760200107602002D
:10932000107602001076020010760200D78B020041
:10933000588C0200942500209425002094250020BC
:10934000204B0020204B0020244B0020244B0020E9
:10935000245300208B930100114F0200FEE7FEE72B
:10936000FEE7FEE7FEE7FEE7FEE7FEE7FEE7FEE7D5
:10937000704700BF0C4880470C484FF007018843F6
:1093800085460B488047FFF73BBF0A480A490B4A0E
:10939000884207D0521A05D0037801300B70013192
:1093A000013AF9D17047000071930100006000207C
:1093B000C1B60100FC750200002500201425002024
:1093C00000487047184B00207047704700B583B0C5
:1093D000044B00934023044A00F036F803B05DF8D4
:1093E00004FB00BFED930100982500201AB32DE97E
:1093F000F84388461446032700250F4E0F4B43F0D1
:10940000010902E0012333709CB1224608EB0501FB
:10941000002003F0DDFA0544241A0028F2D1337845
:109420003BB14FF47A40C847013FEBD1024B0022D9
:109430001A70BDE8F883704794250020107602006A
:1094400008B503F0FBFA08BDF0B595B00E46154619
:109450001C46084601F0F9FE0E950F940024109466
:109460008DF8444012941A9B13932346082208A9AE
:10947000304601F009FF0A9B0B93BDF82430ADF88C
:109480003030BDF82630ADF832308DF835409DF8DB
:10949000203003F00303012B06D0022B21D03046ED
:1094A00001F0D9FE15B0F0BD089DC5F395259DF8D6
:1094B0002030C3F3C2038DF83430BDF82040C4F32C
:1094C00083140823A2000DEB0301304601F0DCFEFB
:1094D0000EAB00930BAB224602A9284600F092FD8A
:1094E000DDE7BDF82250C5F389159DF82030C3F3A0
:1094F000C2038DF8343008272C46082D28BF0824D5
:109500003B46224602A9304601F0BEFE27442D1BF1
:109510000EAB0BAA214602A800F0D8FD002DEBD11E
:10952000BDE7000008B5FFF78BFF0421034800F0FA
:10953000BFFC034B01225A7108BD00BFEC7502004D
:1095400014250020037813F0040F18D003F0030350
:10955000012B03D0022B0AD0012070470B68023385
:109560000288C2F3831213440B60012070470B681A
:109570000233428803EB92130B60012070470020F6
:109580007047000030B585B0274C04F5836001F0CA
:1095900018FB04F2144001F014FB60680390A56806
:1095A0002840033004EB800003A9FFF7CBFF28B16C
:1095B00003982840033004EB8000F5E7039B1A4929
:1095C00003EA050201EB8202D2680092581C0540B2
:1095D00001EB8501C96801910233039302F0030294
:1095E000012A0CD0022A13D1BDF80640BDF8022092
:1095F000C2F38912033203EB9203039309E0BDF82F
:109600000640BDF80020C2F383121344039300E028
:109610000024064801F0DAFA10B1034B039A5A60AD
:10962000204605B030BD00BFDC260020F02A002017
:1096300010B50C4BFF229A6000221A605A60C3F8E2
:109640001824C3F81424012283F82024064801F0CA
:10965000A9FD044608B1204610BD044801F043FEB0
:10966000F9E700BFDC260020107502004C760200EE
:10967000C9B10F4B0F4A9B1AD908072B0BD910B44D
:1096800000230D4C34F82320824206D001338B4254
:10969000F8D3002005E0002070471846054B53F82A
:1096A000300010BC7047034B53F83000704700BFC8
:1096B000EC7502002475020014250020094B03EB11
:1096C000C0030139032909D8DFE801F00A020406C2
:1096D0000420704718797047587970470020704708
:1096E0000220704724750200034B58681B6898429B
:1096F00014BF002001207047DC2600202DE9F04334
:1097000087B0FFF7F1FF002840F0168106468F482A
:109710000023C0F81834BFF34F8F43680593856862
:109720002B40033300EB8300884C03E028400330D8
:1097300004EB800005A9FFF705FF48B1D4F8183401
:1097400033B9236805988342F0D8804A536031E0EA
:10975000059B7E4903EA050201EB8202D268029270
:10976000581C284001EB8001C9680391023305931E
:1097700002F00302022A21D0012A00F08E80734BEE
:10978000D3F810443CB123689B6820469847E368AF
:109790001C68002CF7D16E486E4BC01AC00800043C
:1097A0006D4940F0020000F0DDF8FFF79DFF80F00A
:1097B0000106F6B2304607B0BDE8F083BDF80A30C6
:1097C000C3F389173C46642F28BF642464F38F13C6
:1097D000ADF80A3004F10801604801F003FD0646C7
:1097E0000028CCD001F031FD002308220DEB02014E
:1097F000304601F03EFD059A25EA02030133990047
:10980000B4EB830F3ED9002900F09880641A5FFA08
:1098100084F8CCB2DFF834912A40D11C08232246C8
:1098200009EB8101304601F024FD04F108034246B2
:1098300009F10C01304601F01CFD0337059B03EBD9
:1098400097030593414BD3F81834002B62D13F4B5B
:10985000D3F81044002C65D1304601F0FCFC002305
:109860008DF807300DF1070000F0ECFF374BD3F80F
:10987000183413B9354B059A5A609DF8070001F06A
:109880000DF892E72A40D11C082322462F4800EB0E
:109890008101304601F0EDFCCFE7BDF80820C2F3AE
:1098A0008313062B28BF062363F38912ADF8082023
:1098B00002339900294801F095FC064600283FF440
:1098C0005EAF01F0C2FC002308220DEB020130461E
:1098D00001F0CFFCBDF8083013F4707FB2D0002740
:1098E0000824DFF868904FF00408059B5A1C059285
:1098F0002B40D91C2346424609EB8101304601F03A
:10990000B8FC04340137BDF80830C3F38313BB42FD
:10991000EBD897E7304601F09EFC46E7E3681C6809
:10992000002C99D0E3685B79002BF7D023681B6883
:10993000314620469847F1E700263BE70823E2B28C
:109940000749304601F095FC77E700BFDC26002090
:109950005C75020024750200347602001075020066
:10996000E82600202DE9F04782B080460F46384CAB
:10997000A56800238DF807300DF1070000F062FFA5
:10998000D4F80090A368626813440133A3EB090381
:10999000012B15D804F21C464FF0010A51463046FF
:1099A00001F0F0F8FFF7EEFD0146304601F0EAF86D
:1099B000A36862681344013322689B1A012BEDD916
:1099C000012646F004016FF38911214C2268A36837
:1099D0001340033344F82310023222609DF807003D
:1099E00000F05CFF002104F21C4001F07EF880F3DF
:1099F000100309EB06022A4004EB82021B0443EA2F
:109A00001843D36005EA0903033314F8232068F3ED
:109A1000C50204F8232034F823206FF3891224F8B8
:109A2000232054F8232067F39F2244F8232066F371
:109A300001026FF3820204F8232094F820341BB152
:109A4000FFF75CFE0028FBD102B0BDE8F08700BF45
:109A5000DC2600202DE9F04F83B080460F46924669
:109A60003B4CA56800238DF807300DF1070000F08E
:109A7000E9FED4F80090A368626813440133A3EBB5
:109A80000903022B15D804F21C464FF0010B59466E
:109A9000304601F077F8FFF775FD0146304601F0DA
:109AA00071F8A36862681344013322689B1A022B81
:109AB000EDD9012646F0040166F38911244C226891
:109AC000A3681340033344F82310033222609DF847
:109AD000070000F0E3FE09F102032B4004EB8303CF
:109AE000C3F80CA0002104F21C4000F0FEFF80F33C
:109AF000100309EB06022A4004EB82021B0443EA2E
:109B00001843D36005EA0903033314F8232068F3EC
:109B1000C50204F8232034F8232066F3891224F8C0
:109B2000232054F8232067F39F2244F8232066F370
:109B300001026FF3820204F8232094F820341BB151
:109B4000FFF7DCFD0028FBD103B0BDE8F08F00BFBC
:109B5000DC2600202DE9F04F87B0074601919146A1
:109B60009846049205933F4CA56800238DF80F306A
:109B70000DF10F0000F066FE2668A36862681344CA
:109B800001339B1B032B15D804F21C4A4FF0010B29
:109B90005946504600F0F6FFFFF7F4FC01465046E8
:109BA00000F0F0FFA36862681344013322689B1A37
:109BB000032BEDD94FF0010A4AF004014FF0020BDC
:109BC0006BF38911274C2268A3681340033344F8D0
:109BD0002310043222609DF80F0000F05FFE06EBB8
:109BE0000B032B4004EB8303C3F80C90F31C2B40B6
:109BF00004EB8303C3F80C80002104F21C4000F046
:109C000074FF80F3100006EB0A032B4004EB830380
:109C1000000440EA1740D8603540033514F8253079
:109C200067F3C50304F8253034F825306BF3891346
:109C300024F8253054F82530019A62F39F2344F824
:109C400025306AF301036FF3820304F8253094F89A
:109C500020341BB1FFF752FD0028FBD107B0BDE84F
:109C6000F08F00BFDC2600202DE9F04F87B00746BB
:109C700001919146984603920493109B0593424CA0
:109C8000A56800238DF80B300DF10B0000F0DAFD14
:109C90002668A3686268134401339B1B042B15D804
:109CA00004F21C4A4FF0010B5946504600F06AFF7F
:109CB000FFF768FC0146504600F064FFA368626845
:109CC0001344013322689B1A042BEDD94FF0010A8B
:109CD0004AF004014FF0030B6BF389112A4C226800
:109CE000A36813405B4444F82310053222609DF8BA
:109CF0000B0000F0D3FDB31C2B4004EB8303C3F82F
:109D00000C9006EB0B032B4004EB8303C3F80C8091
:109D1000331D2B4004EB8303109ADA60002104F218
:109D20001C4000F0E2FE80F3100006EB0A032B401B
:109D300004EB8303000440EA1740D86035405D44DB
:109D400014F8253067F3C50304F8253034F82530BE
:109D50006BF3891324F8253054F82530019A62F307
:109D60009F2344F825306AF301036FF3820304F85C
:109D7000253094F820341BB1FFF7C0FC0028FBD13C
:109D800007B0BDE8F08F00BFDC2600202DE9F047CA
:109D900086B007460E46019202930E9B03930F9BDB
:109DA0000493109B0593414DAC6800238DF803305C
:109DB0000DF1030000F046FDD5F80080AB686A683D
:109DC00013440133A3EB0803062B15D805F21C49F5
:109DD0004FF0010A5146484600F0D4FEFFF7D2FB8F
:109DE0000146484600F0CEFEAB686A681344013372
:109DF0002A689B1A062BEDD9052060F389102B4A9F
:109E0000116893680B40033342F823000731116057
:109E10009DF8030000F042FD08F1020201A908F1DB
:109E2000070522481346013251F804CB234000EBCA
:109E30008303C3F80CC0AA42F4D11C4D002105F2E3
:109E40001C4000F052FE80F3100308F10102224092
:109E500005EB82021B0443EA1743D36004EA0803BC
:109E6000033315F8232067F3C50205F8232035F8DE
:109E70002320052161F3891225F8232055F823209A
:109E800066F39F2245F82320012161F301026FF35D
:109E9000820205F8232095F820341BB1FFF72EFC31
:109EA0000028FBD106B0BDE8F08700BFDC2600200B
:109EB00030B40346184AD2F8101400200C4609E0CA
:109EC000154AC2F81034DB6800221A6021E0013024
:109ED0000A281CD039B12246D26815798542F6D0BD
:109EE0001268002AF8D1B0F1FF3F12D0DA68107181
:109EF000094AD2F81024002AE2D0D968D268126840
:109F00000A60054AD2F81024D268136001E04FF0CD
:109F1000FF3030BC704700BFDC26002038B5094B4D
:109F2000D3F81044012283F8202454B11546E36885
:109F30005D7123685B6820469847E3681C68002CC5
:109F4000F5D138BDDC26002070B582B004460D4640
:109F5000C388A3B9217A05290FD0637ABBB9227AC5
:109F6000104B53F822600021A088FFF781FB0346C5
:109F700032460D49284600F09AFE02B070BD0B4AE9
:109F800000920B4A0B49284600F091FEE2E7A088B8
:109F9000FFF794FB084B53F820200849284600F0AF
:109FA00086FEDCE7247702008476020078760200E1
:109FB0005876020060760200007702008076020088
:109FC00010B50C46037A052B0FD0437A3BB90A49EA
:109FD000204600F06CFE204600F05DFE10BD074AF2
:109FE0000749204600F063FEF1E7002AF3D002495A
:109FF000204600F05CFEEEE79076020078760200E4
:10A00000807602002DE9F04385B080460D46174664
:10A010001E460C9C94F80C90002323732146304676
:10A02000FFF792FF062F09D8DFE807F00412181F88
:10A03000283340004146204600F039FE00222146E8
:10A040003046FFF7BDFF84F80C9005B0BDE8F08303
:10A050002A684146204600F02AFEEFE76B682A682E
:10A060004146204600F023FEE8E7AB6800936B68AA
:10A070002A684146204600F01AFEDFE7EB680193AC
:10A08000AB6800936B682A684146204600F00FFEDB
:10A09000D4E72B690293EB680193AB6800936B687C
:10A0A0002A684146204600F002FEC7E76B69039329
:10A0B0002B690293EB680193AB6800936B682A6885
:10A0C0004146204600F0F3FDB8E700002DE9F04FCF
:10A0D00083B00192082902D903B0BDE8F08F07468A
:10A0E0000E461D4693F80C9000241C73194610462A
:10A0F000FFF72AFFDFF87CA0DFF87C8006E05146FE
:10A10000284600F0D4FD0134082C07D0A642F6D929
:10A110003A5D4146284600F0CAFDF4E71449284656
:10A1200000F0C5FD0024DFF854B0DFF854A006E0CD
:10A130005946284600F0BBFD0134082C0FD0A6423A
:10A14000F6D917F8048040460CF0E6FB002814BF4F
:10A1500042462E225146284600F0A9FDECE7012296
:10A1600029460198FFF72CFF85F80C90B4E700BF53
:10A17000A07602009C760200947602008C760200A3
:10A18000A476020000B585B00021019102910390F0
:10A1900001AA44F2010000F003F805B05DF804FBE9
:10A1A00010B572B6FFF7BAFEFFF7A8FA0028FBD188
:10A1B000134C144BE41AE4082404134944F001003E
:10A1C000FFF7D0FB114B1B6813F0010F00D000BE4E
:10A1D00044F002040E492046FFF7C4FB0D49204617
:10A1E000FFF7C0FBBFF34F8F0B49CA6802F4E06270
:10A1F0000A4B1343CB60BFF34F8F00BFFDE700BF97
:10A200005C7502002475020038770200F0ED00E072
:10A21000447702005477020000ED00E00400FA05E4
:10A2200070B50E4B4FF40032C3F880200C4D4FF444
:10A230008033C5F84833C5F8083301266E60094CF1
:10A2400034434FF43C60A047AE600025064B1D60D0
:10A250004FF43C60A047054B1D7070BD00E100E06D
:10A26000001001406C770200B42C0020A52C0020C7
:10A270000B4A53780133DBB292789A4208BF00232D
:10A28000074A12789A4208D003700548437803EBD6
:10A29000430300EBC300043070470020704700BF49
:10A2A000982B002030B583B004460D4600238DF86E
:10A2B00006300DF1060000F0C5FA0DF10700FFF7BA
:10A2C000D7FF88B1057044609DF80720094B5A708C
:10A2D0009DF8060000F0E2FA074B4FF48012C3F835
:10A2E0000021002003B030BD9DF8060000F0D6FA32
:10A2F0000420F7E7982B002000E100E0F8B5254B9B
:10A300000022C3F84021C3F84421C3F84821C3F810
:10A310004C21C3F80021C3F804211F4B1B686BB309
:10A3200002F1804202F58832D2F804451B4A1268D5
:10A33000A41A24F07F4400252F4605E01F745A69B3
:10A340009869904756B133461A68A24206D8A41AB3
:10A350001544DE691A7C002AF4D0EFE7104B1B7815
:10A36000104A12789A420AD00D4B1A780E4B43F8D5
:10A3700022500E4B4FF48012C3F80021F8BD013378
:10A38000DBB2022B02D0064A1370EDE7044B002229
:10A390001A70E9E700100140B82C0020B42C00200E
:10A3A000B12C0020B02C0020A82C002000E100E0FF
:10A3B0002DE9F04F83B0894B1B78894A12789A4275
:10A3C00044D0884A17680133DBB2022B16D0834A87
:10A3D0001370824B1A78844B53F822107B1823F0A9
:10A3E0007F43804A1360814B1B68002B39D00024C7
:10A3F00025462046A6464FF0010C0EE0774B002282
:10A400001A70E6E70CB179480360521A1A6001230A
:10A4100001931DE064469EB133461A689142F1D320
:10A42000891A1044C3F800E0DE69DC68002CF1D022
:10A430003A1822F07F425A609C60DD611D46E9E7D0
:10A440006A4B00221A600123019301E00025019567
:10A45000664BD3F800B04FF00008654B43F001099C
:10A4600061E01D4601230193F2E7624A0021117069
:10A4700089E05E4B1D68002D55D000232B74ED69DB
:10A48000002DFBD1594B00221A604CE0574B1F683E
:10A49000BFB1BC4218D03E46B246F6698EB1B44256
:10A4A000FAD1564512D03168F369CAF81C3013B19D
:10A4B0001A680A441A604D4B1B689F4218BF4FF040
:10A4C0000108002323742EE03E46BA46FB69474A42
:10A4D0001360002BE7D10123474A9360414A0021D2
:10A4E0001160464A13704FF43C60C847DBE75B1AC3
:10A4F00023F07F43A268934234BFD31A0023236022
:10A5000020E03A4B1C600EE011460746401A1E46FA
:10A51000DB692BB11A688242F6D3D21B0A441A6057
:10A520002060E361F4610DB32C46ED6961682D4B49
:10A530001B68CA1A22F07F4231488242D7D8A368EA
:10A540001A44226000236360A36001222274E36145
:10A55000264B1B68002BD4D0206819688842D4D8B9
:10A56000091A1960E361214B1C60DCE7214A13786A
:10A5700052789A4246D05A1CD2B21E490A70897843
:10A5800091423FF472AF03EB43021A4901EBC2025E
:10A5900094681279022A3FF479AF032A3FF469AF35
:10A5A000012AC0D1227C002ABDD1124903EB43020B
:10A5B00001EBC202D06860601069A0605269E2607D
:10A5C00003EB430301EBC3018B69A3610B4B1B78C6
:10A5D000002BABD000236360A8E700BFB02C0020A5
:10A5E000B12C0020B42C0020A82C0020B82C002076
:10A5F0006C770200982B002000100140A42C002052
:10A60000FEFF7F00B8F1000F06D1314B1B689B4560
:10A6100002D1019B002B34D02D4B1B68002B54D052
:10A620001F682C4BD3F804552B4B1C682E1B26F0AF
:10A630007F460336294B1B784BB3B7422CBFE41936
:10A64000A41924F07F44234BC3F84045D3F80435C4
:10A650005B1B23F07F430333641B24F07F44A3423E
:10A660000FD91C4BD3F80425C3F840251C4B4FF4DD
:10A670003C6043F0010398471A4B4FF40032C3F893
:10A680000021194B00221A7003B0BDE8F08F03F1CE
:10A69000804303F588334FF48032C3F84423C3F872
:10A6A0000423104A4FF40031C2F8801111604FF0BA
:10A6B0000108C3F800800A4B4FF43C6043EA0803EA
:10A6C0009847064B83F80080B7E7FFF7A9FDD8E766
:10A6D000B82C002000100140B42C0020A52C002034
:10A6E0006C77020000E100E0A42C002010B5FFF719
:10A6F00097FD114B0020187058700B229A700F4B69
:10A7000018600F4B18700F4B18700F4B4FF48012DE
:10A71000C3F88021C02183F814131A6002F180422B
:10A72000A2F56F221F24C2F8084583F81113D2F84E
:10A730000425064B1A6010BD982B0020B82C002071
:10A74000B02C0020B12C002000E100E0B42C00204F
:10A75000094B9B783BB142B148B10368187C40B9C2
:10A7600059745A61704708207047072070470720C6
:10A7700070470820704700BF982B0020234B9B7820
:10A78000002B34D0F0B583B004460D46164680B396
:10A79000042930D9436983B3437C012B0CBF0F4696
:10A7A000002700238DF807300DF1070000F04AF86C
:10A7B0000DF10600FFF75CFD08B301220270446052
:10A7C000134AD2F804258260C560076146619DF88E
:10A7D00006200E4B5A709DF8070000F05FF80D4BF5
:10A7E0004FF48012C3F80021002003B0F0BD082010
:10A7F00070470820F9E70720F7E70820F5E79DF8FC
:10A80000070000F04BF80420EFE700BF982B002072
:10A810000010014000E100E008B5094B9B7843B10E
:10A8200048B143694BB1002303740221FFF73AFD9D
:10A8300008BD0820FCE70820FAE70820F8E700BF79
:10A84000982B0020EFF3108272B6114B9B68C3B9AE
:10A8500030B40F4901238B600E4BD3F880400E4D6E
:10A860002C400C60C3F88050D3F884404C604FF00B
:10A87000FF31C3F884100023037002B962B630BC04
:10A880007047012303700AB962B67047704700BF72
:10A89000BC2C002000E100E0FC06FFBD084B9B68DB
:10A8A0006BB160B9EFF3108172B6054B1868054AB9
:10A8B00010605868506000229A6001B962B6704713
:10A8C000BC2C002000E100E079B110B40C46B2FBD2
:10A8D000F3F103FB112189B249B904604160816041
:10A8E0008281C381084610BC70470E207047092042
:10A8F000F9E782B050E8022FC188B2EB324F4FF037
:10A90000000317BF92B241EA014142EA014104E06B
:10A910004268B2EB324F08BF012340E80212002A1E
:10A92000E8D18DF807309DF8073013F0FF0F14BF02
:10A930000020112002B0704730B482B050E8013FCF
:10A940009DB2C48925448489A54228BF2D1B048952
:10A95000A54202BFBFF32F8F002207E0C5EA03051F
:10A9600040E80154002CE9D14FF001028DF803209A
:10A970000193019B0B609DF803302BB10B8800689D
:10A98000184402B030BC70470020FAE70A884B88B0
:10A990009A4201D00020704750E8012FC2EA0242DB
:10A9A00040E80123002BF7D10120704730B482B07A
:10A9B00050E8023F1FFAA3F5C488A54202BFBFF3C7
:10A9C0002F8F00220DE0C48925448489A54228BF29
:10A9D0002D1BC3EA054540E80254002CE8D14FF096
:10A9E00001028DF803200193019B0B609DF8033059
:10A9F0002BB14B880068184402B030BC704700206F
:10AA0000FAE70A884B889A4201D00020704750E844
:10AA1000022FC2EA224240E80223002BF7D1012094
:10AA2000704708B501F01F024B090121914000EB6E
:10AA3000830000F073F808BD10B501F01F044B0946
:10AA40000121A14000EB830000F05BF8E04000F042
:10AA5000010010BD08B501F01F0301229A404B0907
:10AA6000D14300EB830000F073F808BD4B0950F8A8
:10AA7000230001F01F01C84000F0010070472DE9DC
:10AA8000F04705460E4601F1FF3A4FEA5A1A4FF0D9
:10AA9000000904E009F10103CA4522D0994605EBFB
:10AAA000890755F82940E44394FAA4F4B4FA84F4ED
:10AAB0001F2CEFD84FEA491804EB4914A642E9D9F4
:10AAC00021462846FFF7B8FF60B13C68E44394FA9A
:10AAD000A4F4B4FA84F41F2CDCD84444A642EFD882
:10AAE000D8E734462046BDE8F08710B4034653E863
:10AAF000000F0A4643E8002494F0000FF7D110BC81
:10AB0000704710B4034653E8000F40EA010243E8DF
:10AB1000002494F0000FF6D110BC704710B4034627
:10AB200053E8002F42EA010043E8000494F0000FCC
:10AB3000F6D110BC704710B4034653E8000F00EA8A
:10AB4000010243E8002494F0000FF6D110BC7047D6
:10AB500010B4034653E8002F02EA010043E8000462
:10AB600094F0000FF6D110BC704710B4034653E8C0
:10AB7000000F00EB010243E8002494F0000FF6D12F
:10AB800010BC704710B4034653E8002F02EB0100DD
:10AB900043E8000494F0000FF6D110BC704710B4E5
:10ABA000034653E8002FA2EB010043E8000494F0B1
:10ABB000000FF6D110BC704708B50121FFF7A1FFC7
:10ABC00008BD08B50121FFF7A9FF08BD08B50021A0
:10ABD000FFF7B1FF08BDC0B110B4044643688268F6
:10ABE000D21AD2B201680B60531EDBB242B12168A7
:10ABF0000A68501C08601370013BDBB2FF2BF6D1D2
:10AC000023680020187110BC70470E20704730B5C3
:10AC100083B0044600238DF807300DF10700FFF7DD
:10AC200011FE2268136861688B4217D9591E1160A2
:10AC300013F8015C228AE36802FB05352268A368E9
:10AC400011685B1ADBB21179994200D213719DF839
:10AC50000700FFF723FE284603B030BD0025F6E7C6
:10AC600030B583B005460C4600238DF807300DF152
:10AC70000700FFF7E7FD2A681368591C1160E968AF
:10AC8000641A298AB4FBF1F41C709DF80700FFF7E1
:10AC900005FE03B030BD826842B110B50446436979
:10ACA0000168006998470023A36010BD70470EB487
:10ACB00000B582B0039921B104AB019301AA00F061
:10ACC0007DF802B05DF804EB03B0704710B5026880
:10ACD00083685C1C8460D154826843689A4200D2C5
:10ACE00010BDFFF7D8FFFBE72DE9F84F82460F466E
:10ACF00015461E46DDF828900B9AA94228D30B462C
:10AD00004FF00108B3FBF5F308F101089D42F9D9B2
:10AD1000B04538BFB04612F0010B17D1B9F1000FA2
:10AD200014D012F0020F16D0002E14BF20243024AD
:10AD3000C8450BD209F1FF3921465046FFF7C6FF3F
:10AD4000B9F1000F02D0C845F4D1C14601240AE090
:10AD50004FF00108DCE72024EAE7B7FBF4F39D425B
:10AD600005D805FB04F4012EF7D9013EF9E7124E90
:10AD7000B7FBF4F304FB1377F15C5046FFF7A6FF33
:10AD80002346B4FBF5F4AB42F2D2BBF1000F10D076
:10AD9000B9F1000F0DD0C8450BD2202409F1FF39BD
:10ADA00021465046FFF792FFB9F1000F01D0C84588
:10ADB000F4D1BDE8F88F00BF74770200002900F0DD
:10ADC000AB812DE9F04F85B0074691460C46DFF880
:10ADD0004CB392E0002602E046F0010601342378ED
:10ADE0002D2BF9D0302B14D02B2B16D02A2B18D08A
:10ADF000214600250C4611F8013BA3F13002D2B2E6
:10AE0000092A15D805EB850503EB4503A3F13005A9
:10AE1000F0E746F002060134E1E746F004060134AB
:10AE2000DDE7D9F800301A1DC9F800201D6801348B
:10AE300023782E2B03D04FF0000823781DE0611CEF
:10AE40006378A3F13002D2B2092A10D84FF000087B
:10AE500008EB880803EB4803A3F1300811F8013F21
:10AE6000A3F13002D2B2092AF2D90C46E5E70C462A
:10AE70004FF00008E1E714F8013F03F0FB02682AF5
:10AE8000F9D0252B00F03A81A3F15802D2B2202A42
:10AE90002ED8583B202B2BD8DFE813F0C0002A0017
:10AEA0002A002A002A002A002A002A002A002A0052
:10AEB0002A0021003B002A002A002A002A003B0029
:10AEC0002A002A002A002A002A002A0018012A0043
:10AED0002A00CE002A00B2002A002A00C000D9F8B9
:10AEE00000301A1DC9F8002019783846FFF7EEFE29
:10AEF00001342378002B00F0068114F8011B00298F
:10AF000000F0018125293FF465AF3846FFF7DEFEEA
:10AF1000EFE7D9F800301A1DC9F80020D3F800A0D7
:10AF20008AEAEA73A3EBEA73092B30DD01221946A2
:10AF30008BFB03C0DB17C3EBA00301326329F6DCF4
:10AF40001346424538BF4346029335B1BAF1000F6C
:10AF500002DB16F0040F00D0013D16F0020F02D004
:10AF6000B8F1000F16D016F0010F13D195B1029B66
:10AF7000AB420FD203941C46013D20213846FFF717
:10AF8000A5FE35B1AC42F7D1039C029D02E001223F
:10AF9000D6E7039CBAF1000F0FDB16F0040F13D1B4
:10AFA00006F00303022B14D00196009543460A22B3
:10AFB00051463846FFF798FE9AE7CAF1000A2D215C
:10AFC0003846FFF783FEEBE72B213846FFF77EFE7E
:10AFD000E6E7B8F1000FE7D1002DE5D0029BAB42C8
:10AFE000E2D203941C46013D30213846FFF76EFE45
:10AFF00025B1AC42F7D1039C029DD5E7039CD3E772
:10B00000D9F800301A1DC9F800201968019600957A
:10B0100043460A223846FFF767FE69E7D9F8003051
:10B020001A1DC9F8002019680196009543461022A0
:10B030003846FFF759FE5BE7D9F800301A1DC9F80A
:10B040000020D3F8008016F001061DD098F80010FB
:10B05000B9B14646C8F1010808EB060A3846FFF7C1
:10B0600035FE16F8011F0029F6D155457FF640AF91
:10B070002026013D31463846FFF728FE5545F8D1D8
:10B0800036E74FF0000AF0E7B8F1000F03D0404672
:10B090000BF0B4FE0646B5420BD955B14FF0200A6D
:10B0A000013D51463846FFF711FEB54201D0002D53
:10B0B000F6D198F8001000293FF41AAF3846FFF790
:10B0C00005FE18F8011F0029F8D111E7D9F8003062
:10B0D0001A1DC9F800201D6830213846FFF7F6FD1B
:10B0E00078213846FFF7F2FD0023019308230093EF
:10B0F000102229463846FFF7F7FDF9E625213846A4
:10B10000FFF7E4FDF4E63B7B13B905B0BDE8F08F33
:10B110003846FFF7C0FDF8E7704700BF6766666610
:10B120002DE9F84F044688469DF828A0C588477940
:10B1300005FB07F7043FA94603F1040CBCFBF5F03F
:10B1400005FB10C1166806EB030EBE4588BFFE1A4C
:10B150001660AC4502D324680138FCD16D1AB542A3
:10B1600028BF3546E6B10027BB460CE02A46194603
:10B170000BF0C6FD2468761B2F444D46B14528BF11
:10B180003546594666B108EB070304316018BAF139
:10B19000000FEBD02A46014618460BF0B1FDE9E757
:10B1A000BDE8F88F08B5FFF716FD08BDF8B50446F1
:10B1B0004679711E11D0024600231268013399426C
:10B1C000FBD1176846B10025214624683846FFF7B1
:10B1D00047FD0135AE42F7D8F8BD01460068FFF7DC
:10B1E0003FFDF9E72DE9F8430746048A231F01F1E3
:10B1F00003089844B8FBF3F8FFF709FD064608B3C7
:10B200000023037101234371043CC4805FFA88F872
:10B210000760B8F1010815D004460025A14638465C
:10B22000FFF7F5FC044648B1737901337371C9F82F
:10B23000000007600135A845F0D103E03046FFF774
:10B24000B5FF26463046BDE8F88308B50121043035
:10B25000FFF798FC08BD10B5044601210430FFF744
:10B260009EFC10F0FF0F00D010BD2046FFF79EFFA0
:10B27000FAE700B585B003920022009203AAFFF717
:10B280004FFF05B05DF804FB00B585B003920122C5
:10B29000009203AAFFF744FF05B05DF804FB41DF0D
:10B2A0007047000010B50024054B1C70054B1C6056
:10B2B000BFF35F8F0449054800F023F8204610BD16
:10B2C000D02C0020D42C002090770200C82C002025
:10B2D00008B506F09BFF18B920BF40BF20BF08BDCE
:10B2E000FFF7DDFFFBE7826800239360826813614C
:10B2F000826853618268D360826853608268136099
:10B30000704701600B6843604A68934204BF0023A2
:10B3100043607047436843B1026891680B444360DF
:10B320005268934204BF0023436070470F4A02F5FE
:10B330009471914218D910B48C1AE30F03EBE40313
:10B340005B1002EBC30452F83330834288BF2146BE
:10B3500004D99142F0D8002010BC704702D204F109
:10B360000802F6E76068F7E7002070479C7B020060
:10B3700008B5FFF7DBFF024B002808BF184608BDE1
:10B38000887B020029DF704728DF704702689368D6
:10B3900033B300B587B00023009302930393049363
:10B3A00001918368059303793BB1012B0FD093681A
:10B3B0006846984707B05DF804FB01238DF800301C
:10B3C00003690293C368039343690493EFE702237D
:10B3D0008DF80030C3681B03029343690493E6E7CA
:10B3E000704708467047002070470000024B187AEB
:10B3F000003818BF01207047742D0020034B012234
:10B400005A74187AB0FA80F040097047742D002001
:10B4100008B510461A460BF073FC002008BD00006A
:10B4200008B51422002104480BF093FC0348FFF7F1
:10B4300060FA002008BD00BF742D0020642D00209C
:10B4400008B5094B43600948FFF7B6FB08B1002077
:10B4500008BD06F0DBFE054B18741C238C22044942
:10B460000448FFF731FAF2E7C47C0200742D002093
:10B47000D82C0020642D002008B5831E012B46D84F
:10B48000254B1B7A002B42D0022B3BD1022807D040
:10B49000214BDB680133082B27D81F4AD36031E0EA
:10B4A0001E4B18681C4B0022DA60037953B1012B44
:10B4B00028D103690133036142699A4214BF002312
:10B4C00001230DE043698269991AB1F5805F94BF49
:10B4D000521802F580528261934214BF0023012367
:10B4E00083B100210C4B197206E00B4B0022DA608D
:10B4F0001A720A4B18680D21FFF748FF08490948DE
:10B50000FFF77FFA044B5B7C13B900F00DF808BD20
:10B5100006F068FEFBE700BF742D00208C2D002094
:10B52000882D0020642D002010B5264B1B7AABB16E
:10B53000244B02221A72244B1C682379D3B1012BAD
:10B5400031D003212046FFF721FF1E4B00221A7243
:10B550005A601E491E48FFF754FA10BD1B491C488B
:10B56000FFF724FA184B18600028E1D1154B002290
:10B570005A60F2E7A3696269D21AB2F5805F28BF08
:10B580004FF480529208E1682069012A38BF0122F5
:10B5900019441844FFF7F6FE58B11128D1D1094BD0
:10B5A00001221A72D9E7E06823691844FFF7ECFE1C
:10B5B000F2E7044B1B7C002BCFD100210220FFF7C8
:10B5C0005BFFCAE7742D00208C2D0020882D002001
:10B5D000642D002008B500F0FD03012B00D008BD4C
:10B5E000054B00225A74012814BF00200120187452
:10B5F000FFF79AFFF3E700BF742D002008B5054858
:10B60000FFF7DAFA10B9044B5B7C03B108BDFFF712
:10B610008BFFFBE7782D0020742D00202DE9F041F1
:10B6200082B00746884616461D4601A90E48FFF718
:10B6300083F9B0B104461C2200210BF08AFB0123E0
:10B6400023712760A5604FEA1831E160666101A9A6
:10B650000548FFF79BF9FFF7D1FF002002B0BDE8D6
:10B66000F0810420FAE700BF642D00202DE9F043AB
:10B6700083B080460F4691461E4601A90F48FFF74A
:10B680005BF9C0B104461C2200210BF062FB0025CF
:10B690002571C4F800800A9BA3602761C4F80C9050
:10B6A000666101A90548FFF771F9FFF7A7FF284672
:10B6B00003B0BDE8F0830420FAE700BF642D00204A
:10B6C000A94B1B78062B00F08E80A84B1B68C3F398
:10B6D0004233A74A1360A44B1B78062B00F0AE80C0
:10B6E0004FF080430022C3F80C21C3F81021C3F8A7
:10B6F00038259D4B1B78062B00F0B3804FF080520D
:10B70000D2F804149B4BC3F82015D2F80814C3F8E0
:10B710002415D2F80C14C3F82815D2F81014C3F865
:10B720002C15D2F81414C3F83015D2F81814C3F835
:10B730003415D2F81C14C3F84015D2F82014C3F8FD
:10B740004415D2F82414C3F84815D2F82814C3F8C5
:10B750004C15D2F82C14C3F85015D2F83014C3F895
:10B760005415D2F83414C3F86015D2F83814C3F85D
:10B770006415D2F83C14C3F86815D2F84014C3F825
:10B780006C15D2F84424C3F8702503F54053FB220E
:10B79000C3F81825744B1B78062B00F08F804FF0F0
:10B7A0008043D3F8003413F0010F05D04FF08043ED
:10B7B0006FF00102C3F800246F4B1B68062B00F0EA
:10B7C00095804FF01023D3F80032002BC0F29980FF
:10B7D0004FF01023D3F80432002BC0F29280674B55
:10B7E000674A1A607047674B1B6813F00F0F14D13C
:10B7F000654B1B6803F0F002302A03D003F0E0032E
:10B80000402B0AD1614B1B68C3F30423604A1360C9
:10B81000554B1B78062B7FF458AF5A4B1B6813F01F
:10B820000F0F7FF452AF584B1B6803F0F003302B1F
:10B830007FF44BAF574B584A1A6046E7514B1B6891
:10B8400013F00F0F7FF44CAF4F4B1B6803F0F00366
:10B85000302B7FF445AF514AD36823F08073D36017
:10B860003EE7484B1B6813F00F0F0DD1464B1B688A
:10B8700003F0F003302B0DD1494B03221A603A4BF1
:10B880001B78062B7FF43AAF3E4B1B6813F00F0F6B
:10B890007FF434AF3C4B1B6803F0F003302B7FF494
:10B8A0002DAF404B05221A60783301221A60703B9D
:10B8B00000221A60043B3F221A601FE7314B1B68CD
:10B8C00013F00F0F7FF46BAF2F4B1B6803F0F002E8
:10B8D000302A04D003F0E003402B7FF460AF324BFA
:10B8E0001B6803F04F03314A136058E7304B1B6865
:10B8F000062B7FF466AF2F4A136843F4806313600E
:10B900005FE72D4B0122C3F804251A46D2F8003414
:10B91000002BFBD04FF010231522C3F80022264A3B
:10B92000D2F80034002BFBD04FF010231522C3F8BF
:10B930000422214AD2F80034002BFBD01E4B0022F7
:10B94000C3F804251A46D2F80034002BFBD0BFF30D
:10B950004F8F1A49CA6802F4E062194B1343CB6057
:10B96000BFF34F8F00BFFDE7E00F00F0440200106F
:10B970003C05004000C00040300100101C250020A4
:10B980000090D003E40F00F0E80F00F02403001053
:10B990004035014074C007400DF0ADBAF0ED00E055
:10B9A000A00500401056004058020010E40E004070
:10B9B000340100103C17004000E0014000ED00E0C1
:10B9C0000400FA0538B538B1012813D10E4B012215
:10B9D0009A701C46154613E00B4B01225A701C4608
:10B9E000002504E01A68A2605B6828469847A368AF
:10B9F000002BF7D138BD1A6822615B68284698474A
:10BA00002369002BF7D1F5E7902D002000B1704796
:10BA100038B5074B01225A701C46002504E01A680D
:10BA2000A2605B6828469847A368002BF7D138BD11
:10BA3000902D002010B50D4B1B7813B185242046A6
:10BA400010BD0A4B00229A605A601A61DA600848F9
:10BA500000F05EF8044606F0D9FB18B1034B012252
:10BA60001A70ECE700F064F8F8E700BF902D0020B2
:10BA7000C5B9010000B583B000238DF807300DF182
:10BA80000700FEF7DFFE094BDA68013ADA60DB688F
:10BA900033B19DF80700FEF701FF03B05DF804FB2A
:10BAA00000F05CF8014B00229A70F2E7902D002024
:10BAB00000B583B001280AD0032820D010B103B00C
:10BAC0005DF804FB104B0122C3F88020F7E7002348
:10BAD0008DF807300DF10700FEF7B4FE0B4B1B7815
:10BAE00053B10A4BDA680132DA6001229A709DF88C
:10BAF0000700FEF7D3FEE2E7FFF79CFFF1E700F057
:10BB000017F8FFF7B7FFDAE700E100E0902D00201B
:10BB10000346064A12793AB9044A0020907113602C
:10BB2000012313715071704785207047A42D0020A8
:10BB3000094B1B6813F0010F07D1074BC02283F894
:10BB400000230122C3F880211A604FF080430022B5
:10BB5000C3F81825704700BF00E100E0054B012243
:10BB60001A604FF08042D2F8183413F4803FFAD1B3
:10BB7000704700BF0C00004000B585B0294B1B6822
:10BB800093B1284B00221A601B680093009B4FF072
:10BB900080430122C3F80823234B5B7923B9224B4E
:10BBA0005A711B6800209847204B1B6873B11F4BCC
:10BBB00000221A601B680193019B4FF08043022210
:10BBC000C3F80823184B1B6801209847184B1B68C3
:10BBD00073B1174B00221A601B680293029B4FF04F
:10BBE00080431022C3F808230F4B1B68022098479C
:10BBF000104B1B6893B100230F4A1360A2F6283242
:10BC0000136012680392039A4FF080420821C2F831
:10BC10000813054A937113680320984705B05DF82F
:10BC200004FB00BF00010040A42D002004010040DF
:10BC3000100100400C010040340C0040054B4FF057
:10BC4000FF3243F82020072803D91844FF2380F847
:10BC500044307047AC2D00201B4B93F8533083BB0E
:10BC600010B582B0184A02F12B034B32FF2103F8C2
:10BC7000011F9342FBD10024E0B2FFF7DFFF013444
:10BC80000B2CF9D1104C0422002104F14F000BF0D1
:10BC900060F80E4BC02283F806234022C3F88021AF
:10BCA0001A600B4B002018601B680193019B094B25
:10BCB0004FF00042C3F80423012384F8533002B04C
:10BCC00010BD0820704700BFAC2D002000E100E04F
:10BCD0007C61004000600040034B93F85300003843
:10BCE00018BF0120704700BFAC2D0020364B034425
:10BCF00093F92C30B3F1FF3F01D00820704730B4E6
:10BD00008B780BBB304B0344FE2283F82C204B78FE
:10BD1000012B52D0012383404FF0A042C2F80C35D2
:10BD200000F5E0724FF0A043032143F822102749A9
:10BD3000C20800F00700012303FA00F08B5C1843EF
:10BD40008854002030BC7047214A002352F8044F29
:10BD5000B4F1FF3F04D00133082BF7D10420F1E701
:10BD60005DB2194A141884F82C50002442F823407C
:10BD7000B5F1FF3F08BF0420E4D00A784C78AB004F
:10BD800003F1804303F5C043D3F8105525F498150B
:10BD900025F4F855C3F81055D3F81055120402F4E1
:10BDA0004032240504F480142243040204F4F854BD
:10BDB00022432A43C3F81025A9E783404FF0A0424D
:10BDC000C2F80835ACE700BFAC2D0020FB2D0020E9
:10BDD000A82D002038B50446164B034493F82C00D8
:10BDE000072819D9134B1A19FF2182F82C1004F0D7
:10BDF000070101228A404F33E108585C10420AD003
:10BE000004F5E0744FF0A040022540F82450585C3F
:10BE100020EA02025A5438BDFFF710FF054B2344B5
:10BE200093F92C3003F5A273034A002142F8231042
:10BE3000D8E700BFAC2D0020006000400123834004
:10BE40004FF0A042C2F808357047012383404FF0FD
:10BE5000A042C2F80C357047144B034493F92C30C0
:10BE6000072B0DDD800000F1A040D0F8003723F44F
:10BE70004033C0F80037D0F80037C0F800377047BB
:10BE8000DAB2072A10D89A0002F1804202F5C042C5
:10BE9000D2F8101521F00101C2F81015012202FAA2
:10BEA00003F3034AC2F80833704700BFAC2D0020EB
:10BEB0000060004070B50446FFF7CEFF154B2344E9
:10BEC00093F92C30DAB2072A05D803F5A273124A87
:10BED000002142F8231004F00702012393400F4988
:10BEE000E208885C18420AD004F5E0704FF0A045E3
:10BEF000022645F82060885C20EA03038B5405483D
:10BF0000044494F82C00FFF799FEFF2384F82C30AA
:10BF100070BD00BFAC2D002000600040FB2D002054
:10BF200070B50F4D05F12B0405F14B06C5F1FF254A
:10BF300005F57F05D53503E0FFF74CFFB4420AD085
:10BF4000281914F9013F13F1020FF5D0002BF5DB8E
:10BF5000FFF7B0FFF2E7024B002283F8532070BDD9
:10BF6000AC2D00202DE9F04F87B000250595684BDA
:10BF70000122684E2F46684C03E052000433A3426E
:10BF80000CD019680129F8D1D6F804131142F4D065
:10BF90001F601968039103991543EEE75F4B1B6817
:10BFA000012B15D015F0FF0F22D1002D80F29480C7
:10BFB000002301934FF0FF330293594D05F14F06D3
:10BFC0004FF0020905F14C044FF0000801273CE056
:10BFD000524B00221A601B680493049B4FF0A0434D
:10BFE000D3F81035059315F0FF0FE1D045F000456B
:10BFF000002401264A4F03E076000134082CD4D0F7
:10C000003542F9D0A30003F1804303F5C043D3F8D0
:10C010001005D3F8101557F82430002BECD0C1F3DD
:10C020000141C0F304209847E6E703290BD10DF145
:10C03000040E1EF802C04CEA030C0EF802C026E003
:10C04000BEF1030F4FD0B4423CD014F9013BB3F121
:10C05000FF3FF8D05FFA83FC03F03F00C3F3C20256
:10C0600003F0070307FA03F306A9114411F8101CA3
:10C070001942E8D04FEA9C1105EB000C9CF92CC04A
:10C0800055F82CA0BAF1000FCFD00329CFD04FEA3A
:10C09000800C0CF1A04CDCF800E7CEF3014E0DF162
:10C0A000180B5A4412F8042C1A42C9D0BEF1020FE0
:10C0B000C9D1032904D0BAF1000FC4D0D047C2E7D8
:10C0C0000A4613E0B8F1000F06D04FF0A043D3F8B2
:10C0D0001035059A9A4202D107B0BDE8F08F05935A
:10C0E000019B02936EE70329E5D14A46DCF800374D
:10C0F00023F44033CCF80037DCF8003743EA02433E
:10C10000CCF8003708F101085FFA88F8D3E700BFE0
:10C110000061004000600040206100407C61004000
:10C12000AC2D002000B585B001238DF800308DF8CE
:10C1300008100192436801686846984705B05DF8A9
:10C1400004FB000030B589B0454BD3F82431002BF7
:10C150003ED0434B0022C3F82421D3F8241102918E
:10C16000029902218DF81010D3F88014C3F88014BE
:10C170000791D3F83C358DF818303A4BD9680591C2
:10C180009A61DA615A68196804A89047344BD3F869
:10C1900044315BB1324B0022C3F84421D3F844311F
:10C1A0000193019B2F4B9B69002B3FD12C4BD3F864
:10C1B00020315BB12A4B0022C3F82021D3F8203173
:10C1C0000093009B274B5B69002B38D109B030BD31
:10C1D000234BD3F81031002BD8D0214B0022C3F8C9
:10C1E0001021D3F810210392039AD3F83C151D4B6C
:10C1F0009B699942CAD11B4BDB6983B11948C2685C
:10C20000174DD5F8004224F02004C5F800428361A0
:10C210000369C3600023C361FFF784FFB6E71148D9
:10C2200000238361C268FFF77DFFAFE70D4882619D
:10C230000B4BD3F83C15C268FFF774FFB6E7084B09
:10C24000D3F84C358DF810208DF81830054B9968CF
:10C2500005915A615A68196804A89047B6E700BF6B
:10C2600000200040002E0020F0B589B0714B1B6803
:10C27000002B00F0A5806F4B00221A601B68009312
:10C28000009B6D4B93F82E30002B7CD06A4B93F8BB
:10C290002F30002B40F0B980684B1B68002B00F05A
:10C2A0009580664B00221A601B680193019B624ACD
:10C2B000538B92F82D108AB293421CD99B1A9BB2D1
:10C2C0005D484383028992B2D31A426802EB43036A
:10C2D0005B4AC2F82C36C2F83016564B00221A6060
:10C2E0001B680293029B574B01221A606EE0524B6F
:10C2F00000221A745DE09342EFD14F4BDB685BB1D3
:10C300004D4A012082F82F00002050834C4AC2F889
:10C310002C36C2F83016E0E7474B012283F82F2075
:10C3200000225A83D9E7444B5C69002C6BD04FF054
:10C33000004500271E4601E0002C64D0B4FA84F3C7
:10C3400025FA03F224EA020446339B0003F18042FB
:10C3500002F5E04211680029EED0176012680492DD
:10C36000049A01228DF81420A3F58C73DA088DF855
:10C37000182083F00403C3F380038DF81930336869
:10C3800005A89847D8E700238DF814302A4B5A683F
:10C3900006921A89ADF81C20DA68002AA7D0264B2D
:10C3A000198B59835A6019810022DA60244B0122CB
:10C3B0001A60214C236805A89847002384F82F3081
:10C3C0001D4B93F82E30002B7FF466AF1E4B1B687D
:10C3D0006BB11D4B00221A601B680393039B164B25
:10C3E0001A7402228DF814201B6805A89847174B71
:10C3F0001B68002B97D0154A002313601268059222
:10C40000059A0D4A137409B0F0BD00238DF814305D
:10C41000094B5A6806921A89ADF81C20DA68002A7E
:10C420003FF465AF044B198B59835A601981002280
:10C43000DA60BEE704710040242E00200071004045
:10C440000070004004700040107100401471004002
:10C45000234B93F82C30002B40D110B483B0204BE9
:10C46000196002781F4CC4F8F0254278C4F8F4250E
:10C47000C27883F82E20012283F82C2000221A741F
:10C4800083F82D205A6183F82F206FF00041C4F803
:10C49000081315490A6009680191019913490A6056
:10C4A0000A680092009A82785201D2B2104981F84B
:10C4B00007238022C1F880210A600222C4F80423E5
:10C4C00093F82E3013B10122C4F80423054B012246
:10C4D000C3F80025002003B010BC70470820704747
:10C4E000242E0020007000400471004000710040C4
:10C4F00000E100E02F4B1B7C002B59D10B79012B65
:10C500004BD92C4B03EB40031B7F2BB9294A92F8E4
:10C510002D30013382F82D3000F10C02254B03EB56
:10C520004203CA791A710A7A5A714B781B0103F0D7
:10C5300030038A78120202F4E06213430A7802F0B0
:10C5400003021343CA78120302F4805213430A7998
:10C55000120402F4E02213434A79120502F4801215
:10C5600013438A79120602F080721343020102F12A
:10C57000804202F5E042C2F81835CB790A7A000110
:10C5800000F1804000F5E040C0F81425C0F81035F7
:10C590000B79012B06D900207047074B0022C3F806
:10C5A0000025AEE7044B0122C3F8002500207047A8
:10C5B00011207047242E002000700040394B1B7C56
:10C5C000002B6DD130B482B0364A01241474364B3E
:10C5D0000325C3F80853C3F82C16C3F8304692F865
:10C5E0002D30A3420DD900221146130103F18043DF
:10C5F00003F5E043C3F81415C3F810150132082AF7
:10C60000F3D100F10C02274B03EB42031A7959795D
:10C61000000100F1804303F5E043C3F81415C3F8AB
:10C6200010250123204A13600432136042F2107374
:10C630001E490A680AB9013BFBD11D4B00221A6052
:10C640001B680193019B194B1A601B680093009BA8
:10C65000144B93F82D30012B0FD91249087F4C7FD2
:10C66000130103F1804303F5E043C3F81445C3F815
:10C67000100501320231082AF0D10A4B93F82E300E
:10C680004BB1094B0322C3F804230020054B187457
:10C6900002B030BC7047044B0222C3F80423F4E715
:10C6A00011207047242E00200070004004710040CB
:10C6B00000710040024B187C003818BF0120704701
:10C6C000242E002030B48CB244EA0244030103F16A
:10C6D000804303F5E043C3F81C45400080248440B8
:10C6E00011F5006F1DD01C49451C4FF00043EB4075
:10C6F0004D692B434B61194BC3F8044340238340DE
:10C7000040F2FF718A421AD013494FF0004222FAD8
:10C7100000F04A6902434A61104AC2F8043330BC4F
:10C7200070470D4D411C4FF0004323FA01F16B6936
:10C7300023EA01036B61094BC3F80843DEE70649AE
:10C740004FF0004222FA00F04A6922EA00024A61F0
:10C75000024AC2F80833E2E7242E002000700040AD
:10C76000144B1B7C1BBB10B5124B03EB40031B7F10
:10C770002BB1104A92F82D30013B82F82D3000F198
:10C780000C020C4B03EB420300241C715C7103018F
:10C7900003F1804303F5E043C3F81445C3F81045A3
:10C7A00040F2FF720449FFF78DFF204610BD1120B3
:10C7B000704700BF242E002000F8FFFF38B5164B4D
:10C7C0006FF00042C3F80823144B8022C3F8802086
:10C7D000134B01221A6042F2107312490A680AB917
:10C7E000013BFBD100240C4BC3F800450E4B1C74DD
:10C7F0001D4602E00134082C08D005EB44031B7FE2
:10C80000002BF7D0E0B2FFF7ABFFF3E7064B0022B7
:10C8100083F82C2038BD00BF0070004000E100E02C
:10C820000870004014710040242E00206AB32DE9E6
:10C83000F04782B00746884600F5A075561EF6B24E
:10C8400000244FF48039A24604E0631C0435B4424E
:10C8500018D01C46A00000F5A07080B22B68002BF9
:10C86000F3D0D7F8043309FA04F11942EDD0C5F832
:10C8700000A02B680193019BD8F80030D8F8041071
:10C880009847E2E702B0BDE8F087704708B5042298
:10C8900002490348FFF7CAFF08BD00BF542E00201D
:10C8A0000080004008B5042202490348FFF7BEFF9C
:10C8B00008BD00BF602E0020009000400369C168E1
:10C8C0008B4204D882681A44013A501A7047013BDF
:10C8D000581A70472DE9F84304460F461646C568B6
:10C8E000D0F80890A9EB0508904507D9406828447E
:10C8F0000AF006FA3544E560BDE8F8834068424630
:10C9000028440AF0FDF93544A5EB09052A4607EB52
:10C91000080160680AF0F4F9E560EDE72DE9F843F5
:10C92000064688461746C5684FF000093469A54297
:10C9300024BFB268A418013C621BB3685C1BBC42F4
:10C9400028BF3C46944228BF1446706822464146A0
:10C9500028440AF0D5F9A144A0442544B368AB4269
:10C9600008BF0025F5603F1BE0D14846BDE8F883CD
:10C9700010B5114C022323616361104AA261104B70
:10C98000E3614FF4007323620023A3626362E362F6
:10C99000A2640C4AE26410222265A3656365E36524
:10C9A0000949E01D0AF008FA084920460AF004FA8D
:10C9B0002023A37110BD00BF6C2E0020287D020033
:10C9C000F42E0020E42E0020347D0200387D020089
:10C9D000F8B50F461646184B451C05EB450503EB0D
:10C9E000C50500EB400003EBC000C46A012C11D068
:10C9F000022C1CD014B100242046F8BD2846FFF7B5
:10CA00005DFF8642F8D8324639462846FFF762FF76
:10CA10003446F1E72846FFF751FF3446864228BFE7
:10CA20000446224639462846FFF754FFE4E72846E5
:10CA3000FFF774FF0446DFE76C2E002008B5FFF710
:10CA400097FF08BD6DDF704779DF70477DDF704766
:10CA500064DF70472DE9F04F87B002919A46109E2F
:10CA6000BDF844B0338803930388002B4FD00546AC
:10CA700017464FF000094C46C8461BE0013292B2FF
:10CA80003280029B0AF802303388013333803288C7
:10CA900052440DF1130105A8FFF7DAFF28BB9DF8FA
:10CAA00013303288134433804FF0010901342B884E
:10CAB000A3421CDD6B6853F82400059042460DF13B
:10CAC000130105A8FFF7C4FF0190E0B99DF81330EA
:10CAD000BB42EBD1B9F1000F1FD1328813440233AE
:10CAE0005B45CBDD0C2301930DE001900BE0B9F128
:10CAF000000F08D03388013B039A9B1A9BB2FF2B8F
:10CB000008D80AF80230019807B0BDE8F08F00237A
:10CB10000193F8E70C230193F5E7328813445B4552
:10CB2000B5DD0C230193EEE72DE9F04182B0044618
:10CB300015461E46089FBDF82480CDF80480009756
:10CB40000222FFF787FF10B102B0BDE8F081CDF8F7
:10CB5000048000973346102229462046FFF77AFFCB
:10CB6000F2E72DE9F04784B005460E4614461788D3
:10CB70000023138090F82D30002B40F0B880AB7864
:10CB8000002B40F0DF80EB78002B40F0FC806B68DE
:10CB9000B3B12288D11CB94200F2C58193F90010CB
:10CBA0000223B354238801339BB223800A22F25418
:10CBB000238801339BB22380F154238801332380DF
:10CBC0002B89002B40F0F5802B8A002B40F0FE8053
:10CBD0002B8B002B40F007812B6A002B43D0218840
:10CBE0008A1DBA4200F2B1811A88052A40F2AF814B
:10CBF000A2F6814080B24FF27D3C604540F2A981AF
:10CC00005888052840F2A781A0F6814C1FFA8CFCB9
:10CC10004FF27D3EF44540F2A0814FF6FF7C624525
:10CC200004D0604502D0824200F2998105227254FC
:10CC30002288013292B222801221B154228801321C
:10CC400092B222801988B018B154090A4170228822
:10CC5000023292B222805B88B118B3541B0A4B7027
:10CC6000238802332380D5F82480B8F1000F31D017
:10CC7000B8F80430023321888A1C1A44BA4200F200
:10CC80005E81FE2B00F25D810133735423880133F2
:10CC90009BB22380FF22F254238801339BB223806E
:10CCA000B8F80020F118F254120A4A7020880230B5
:10CCB00080B22080B8F8042062B1D8F808100029AA
:10CCC00000F0418130440AF01BF82388B8F80420B2
:10CCD0001344238095F82C30002B40F091802B7862
:10CCE000002B40F0D480002004B0BDE8F087082F6E
:10CCF00040F2398102A8FFF7A5FE0028F4D123886D
:10CD00000822F254238801339BB223801B22F25461
:10CD10002088013080B2208006220DF109013044C4
:10CD200009F0EEFF238806339BB223809DF808208C
:10CD300012F0FE0F0CBF00220122F25423880133AF
:10CD400023801CE723880433BB4200F20A8102A837
:10CD5000FFF77AFE0028C7D123880322F2542388E4
:10CD600001339BB223801922F254238801339BB2F2
:10CD70002380BDF80820F118F254120A4A70238863
:10CD800002332380FFE62288D11CB94200F2C98019
:10CD90000221B1542288013292B222800121B15481
:10CDA00022880A4492B22280B35423880B44238001
:10CDB000EDE60197009433460622022105F10800B2
:10CDC000FFF7B2FE00283FF4FFAE8DE70197009415
:10CDD00033460722032105F11000FFF7A5FE0028C6
:10CDE0003FF4F6AE80E701970094334615221421F4
:10CDF00005F11800FFF798FE00283FF4EDAE73E749
:10CE0000AB6A002B00F097804FF000084FF0160A35
:10CE100010E0304409F074FF2388B9F8042013446B
:10CE2000238008F1010895F82C205FFA88F39A42D4
:10CE30007FF655AF5FFA88F202EB4202A96A01EB76
:10CE40008209B9F804300233FE2B76D820880133EA
:10CE50003354238801339BB2238006F803A0238830
:10CE600001339BB2238031F82220F118F254120AC8
:10CE70004A702088023080B22080B9F80420002A4D
:10CE8000CFD0D9F808100029C3D107202CE72A8871
:10CE9000012A3ED02288901CB8423CD8012B04D1F4
:10CEA0006B78023313449F4237D3023FBF1ABFB29D
:10CEB000ADF8087002A93044FFF7C8FD00287FF4E0
:10CEC00013AF2B78022B30D06A78BDF808108A4255
:10CED00001D38F421BD2012B13D0ADF8087008216B
:10CEE000BDF80830FE2B1AD822885D1CB554228864
:10CEF000013292B22280B1542B46228813442380FF
:10CF0000F2E69742E9D3ADF808200821E8E70921C5
:10CF1000E6E70720E8E60C20E6E60C20E4E60C2035
:10CF2000E2E60C20E0E60C20DEE6BDF80830BB426D
:10CF3000D3D80921D4E70720D6E60C20D4E60C206C
:10CF4000D2E60C20D0E60720CEE60C20CCE6072067
:10CF5000CAE60720C8E60720C6E60720C4E6072081
:10CF6000C2E60C20C0E60C20BEE6E8B1F0B40546EF
:10CF7000E2B11688002005E0884212D22C5C013410
:10CF8000204480B28642F7D807462C1864789C4229
:10CF9000F2D188420CD202301080E85D013880B2B4
:10CFA00000E00020F0BC7047002070470020F9E747
:10CFB0000020F7E710B582B0044613460022ADF812
:10CFC00006200DF10602FFF7D0FF20B1BDF80600E4
:10CFD000204402B010BD0020FBE772DF704773DF12
:10CFE000704738B504460D460122B0F89810D0F8C5
:10CFF0009400FFF7DFFF00B1057004F13C0204F17B
:10D00000940104F15400FFF7E8FF38BD80F83010B8
:10D010007047002972D02DE9F04104468846002867
:10D020006FD091F87A301BB191F89830002B6AD10B
:10D03000D8F8A030042B68D0D8F89C30042B66D0E8
:10D040000027A770251D08F178060FCE0FC50FCE5B
:10D050000FC596E8070085E8070084F83070D8F817
:10D06000A4306363D8F8A830A3634FF6FF73A4F825
:10D07000A83004F19403C4F8A4300722394604F11F
:10D08000AA0009F066FE237813B9FF2384F8543010
:10D0900004F15501C4F8941022461F2322F8983F4A
:10D0A0004046FFF75EFD034628BB04F17401C4F857
:10D0B0009C1022461F2322F8A03F08F13C00FFF7F6
:10D0C00050FD0346B8B9012384F85130A269A4F891
:10D0D000482084F83C300021216484F850106369B2
:10D0E000636404F13C0204F15400FFF776FF034649
:10D0F00008B9012222701846BDE8F0810E231846B7
:10D1000070470E23F7E70723F5E70723F3E7072325
:10D11000F1E7F8B50678002E00F0F08004460D46E1
:10D12000817000F1AA0707220021384609F011FE9C
:10D13000E38813B1A378012B15D0E37913B1A37859
:10D14000022B10D004F1AA0304F1B00113F8012F4F
:10D1500012B98B42FAD100266B1E032B48D8DFE8A8
:10D1600003F00E151A1E636B2BB1012284F8B12057
:10D1700008209847E6E7002384F8B130E2E7A37976
:10D1800023B194F824300BB92EB10DE0E37913B13B
:10D19000002E40F0DB80237A002B40F0BE80637AC3
:10D1A000002B40F0BC800025A570002384F8B3302C
:10D1B00004F13C0518220021284609F0CAFD01238C
:10D1C00084F83C30E36A5A1E012A40F29B80012316
:10D1D00084F8513094F824306BB9002384F850302F
:10D1E000A378042B5AD8DFE803F0850A29396300B5
:10D1F0000023A370D9E7012384F85230EDE701231F
:10D2000084F831300023C4F8A43027646364022317
:10D2100084F83C308023A4F848302A46D4F8A4107F
:10D2200004F15400FFF7D9FE002868D194F83010BB
:10D2300094F85400FFF7D3FE98B360E0022384F81B
:10D240003130032384F83C302369A4F848300023AC
:10D25000C4F8A4302764E3686364DEE76369636449
:10D26000A369A4F8483063798BB194F8B23073B9EC
:10D2700094F8B4305BB1022384F850300421204686
:10D28000FFF7AFFE50B9052384F8313002E00323E5
:10D2900084F8313004F19403C4F8A430A378002B4F
:10D2A000BBD1636B63B394F831009847002026E04C
:10D2B000E3696364236AA4F84830637993B194F80E
:10D2C000B2307BB994F8B43063B1022384F85030A3
:10D2D00004212046FFF785FE0028DFD1062384F8CD
:10D2E000313002E0042384F8313004F19403C4F8AF
:10D2F000A430D3E7002384F83130D2E70820F8BD0A
:10D300000020FCE784F8513094F82430002B3FF4DF
:10D3100064AFA36A84F852305FE7032300E004237C
:10D32000A370636B002B3FF440AF6279002A3FF497
:10D330003CAF94F8B220002A7FF437AF84F8B420D1
:10D34000012284F8B3200720984731E702252BE714
:10D350000388102B00D07047C37B012B04BF838848
:10D36000A1F8A830F7E7704775DF704776DF7047A0
:10D370007ADF70477BDF7047034B1A8882420CBF0D
:10D3800018460020704700BF1031002070B44C8850
:10D390000588A5421BD84588A5421BD384888D8863
:10D3A000944294BF261BA61AB54215D32244954237
:10D3B00014D8C288C8889A4294BF911AD11A884258
:10D3C0000ED3134498428CBF0020012000E00020BF
:10D3D00070BC70470020FBE70020F9E70020F7E76A
:10D3E0000020F5E708B5024B9B6903B1984708BDDB
:10D3F000F430002030B583B084B22046FFF7BCFF84
:10D40000A0B10546027A174B1B7B9A4210D300232A
:10D410000372144B1B7CB3B9124B5B6933B100220E
:10D420008DF80420ADF8064001A8984703B030BD40
:10D4300000F10A012046FFF797FF70B11128F5D0DF
:10D44000FFF7D0FFF2E73B212046FFF78FFF30F0D8
:10D450000803E1D0FFF7C6FFDEE72B7A01332B721A
:10D46000E4E700BFF430002000B583B002460B466D
:10D47000497A69B9197A41B90D4949685868FDF77F
:10D480007DF988B1FFF7AEFF0EE009498968F5E73D
:10D4900000211972064B5B6933B101218DF804102C
:10D4A000ADF8060001A8984703B05DF804FB00BF83
:10D4B000F430002070B504460388122B64D011D8D4
:10D4C000102B17D0112B14D18088FFF755FF04467D
:10D4D00078B14068FDF7A0F9002836D14FF6FF7308
:10D4E000238006E0502B04D1C288324BDB899A425C
:10D4F0002ED070BDC37B012BFBD14FF6FF70FFF721
:10D500003BFF0546E8B1A6880680002303722A4B3C
:10D5100003CBC5F80A00C5F80E104FF6FF7340F2B2
:10D52000F31204F1100105F10A00FFF72FFF6872F2
:10D53000204BDB89002BDCD129463046FFF794FFD6
:10D54000D7E70420FFF74EFFD3E7FFF74BFFC5E710
:10D55000038A022BCDD185882846FFF70DFF0646AA
:10D560000028C6D004F1120000F0E1F920B13146E4
:10D570002846FFF779FFBCE77068FDF74DF90028F2
:10D58000B7D0FFF72FFFB4E786883046FFF7F4FEE9
:10D5900005460028ADD04FF6FF7340F2F31204F1B8
:10D5A00008010A30FFF7F2FE687229463046FFF79D
:10D5B0005BFF9EE7F43000202431002058B3F8B51B
:10D5C0000646164F3C4605460FCD0FC495E80700AA
:10D5D00084E80700124B3B603068B0B1FFF7C8FE2B
:10D5E00090B932680E4B1068516803C30D484FF66E
:10D5F000FF7303800C4B40F8043F0C4A0021FDF7F9
:10D60000A7F8002818BF0320F8BD0548FFF7B2FEB1
:10D610000028EBD0F8E70E20704700BFF430002060
:10D6200024310020103100202C310020F5D30100DE
:10D63000F0B583B00190A1B116460F46019D8DB1A2
:10D640000024254602E00134142C0BD0214601A809
:10D65000FDF70CFA0028F6D03146A0B2B8470135E4
:10D66000F1E70025284603B0F0BD70B582B006464C
:10D670000191019D85B10024254602E00134142C5E
:10D680000AD0214601A8FDF7F1F90028F6D006EBF3
:10D6900045039C800135F1E73560304602B070BD2E
:10D6A0002DE9F04F8DB087880388112B43D00446B5
:10D6B0001A2B45D0102B02D00DB0BDE8F08F304AA8
:10D6C0009368DB43009351686846FDF741FA00997F
:10D6D00001A8FFF7CAFF019BA3B10DF1060606EBF7
:10D6E0004309DFF89CA00AF1780B36F8028F0AF1A3
:10D6F000040541462846FDF7ADF90435AB45F8D1A0
:10D700004E45F2D1132F03D90420FCF73BFDD3E79C
:10D710001B4D394605F10800FDF783F93946281DF0
:10D72000FDF77FF9E37B012BC6D0394605F10C00EC
:10D73000FDF777F9C0E739461248FDF78BF9BBE7EB
:10D74000037A1C091F2B0FD939460F48FDF769F9D9
:10D75000022C04D939460D48FDF763F9ACE7394688
:10D760000A48FDF777F9A7E7054C394604F11000A0
:10D77000FDF770F9394604F11400FDF76BF99BE7EA
:10D780004C310020543100205C31002060310020F9
:10D79000132801D90020704708B501460148FDF75C
:10D7A00065F908BD5031002008B5FFF7F1FF08BD4D
:10D7B00010B50446FFF7ECFF08B9002010BD214664
:10D7C0000348FDF753F9002814BF02200120F5E7B4
:10D7D0005431002010B50446FFF7DAFF00B910BD40
:10D7E00021460248FDF742F9F9E700BF5C3100200D
:10D7F00010B50446FFF7CCFF00B910BD2146024822
:10D80000FDF734F9F9E700BF6031002010B5044698
:10D81000FFF7BEFF002814BF2046142010BD0000F3
:10D8200008B518210248FDF72AF9C0B208BD00BFAB
:10D830004C31002038B504460D460948FDF716F96D
:10D8400000B938BD2046FFF7A3FF0028F9D0063500
:10D850002146034800EB8500FDF708F9F1E700BF1A
:10D860004C31002070B506460C4615460D48FDF7B4
:10D87000FDF800B970BD3046FFF78AFF0028F9D0E7
:10D880003DB106343146074800EB8400FDF7C9F886
:10D89000F0E706343146034800EB8400FDF7DAF880
:10D8A000E8E700BF4C31002070B504460E4615462F
:10D8B00001460848FDF7DAF808B9002070BD0434C5
:10D8C000044800EB8404A0682A463146FFF7B0FE06
:10D8D000F4E700BF4C310020DAB138B504461546F4
:10D8E00000231360B8B10368BBB1C38813F0030F02
:10D8F00015D10846FFF78AFFC0B2142811D023794A
:10D90000834210D9E388226800FB032028600020AE
:10D9100038BD0E2070470E20FAE70E20F8E70720EA
:10D92000F6E70520F4E70420F2E7AADF7047007865
:10D9300000F001007047F0B591B005460C46164660
:10D940008B78012B38BF01238DF80E300B88ADF892
:10D950000C300322002102A809F0FBF9637C9DF83A
:10D96000082002F0F0026FF307128DF80820013B47
:10D97000042B0DD8DFE803F0031D28333E009DF88B
:10D980000830012262F3030362F307138DF80830B5
:10D99000A37C9DF8092002F0F0026FF307128DF8C6
:10D9A0000920013B042B38D8DFE803F02E929DA814
:10D9B000B3009DF80830012262F30303022262F3F0
:10D9C00007138DF80830E3E79DF80830012262F371
:10D9D0000303032262F307138DF80830D8E79DF89C
:10D9E0000830022262F30303012262F307138DF869
:10D9F0000830CDE79DF80830022262F3030362F39A
:10DA000007138DF80830C3E79DF80930012262F34F
:10DA1000030362F307138DF809309DF80A30E27BA7
:10DA200062F3C303227C62F30413227B62F30003DC
:10DA3000227D002A14BF0222012262F342038DF8E4
:10DA40000A301C22002109A809F083F9637B13F036
:10DA5000300F68D1637B8DF82430A37B8DF825309F
:10DA60001422002104A809F074F903AB049302AB5B
:10DA70000593A388ADF81C30A3681BB1E288ADF80C
:10DA800018200893A369002B00F00F8101AF032237
:10DA90000021384609F05DF9A2691388ADF82C30F1
:10DAA0005388ADF82E3053680A930D97137B9DF879
:10DAB000041001F0F0016FF307118DF80410013B21
:10DAC000042B00F29580DFE803F08AA4AFBAC5000A
:10DAD0009DF80930012262F30303022262F3071367
:10DAE0008DF8093099E79DF80930012262F30303AC
:10DAF000032262F307138DF809308EE79DF8093091
:10DB0000022262F30303012262F307138DF8093046
:10DB100083E79DF80930022262F3030362F30713DF
:10DB20008DF8093079E703220021684609F011F9E0
:10DB3000E37C9DF8012002F0F0026FF307128DF8EC
:10DB40000120013B042B0DD8DFE803F0031E29342C
:10DB50003F009DF80130012262F3030362F30713D3
:10DB60008DF801309DF80030012262F3030362F367
:10DB700007138DF800309DF8023062F342038DF8F0
:10DB80000230CDF838D065E79DF80130012262F30C
:10DB90000303022262F307138DF80130E2E79DF8D8
:10DBA0000130012262F30303032262F307138DF8AD
:10DBB0000130D7E79DF80130022262F3030301220E
:10DBC00062F307138DF80130CCE79DF80130022293
:10DBD00062F3030362F307138DF80130C2E79DF887
:10DBE0000430012161F3030361F307138DF804305E
:10DBF000537B9DF8051001F0F0016FF307118DF8CC
:10DC00000510013B042B38D8DFE803F02E5A65706D
:10DC10007B009DF80430012161F30303022161F3CD
:10DC200007138DF80430E3E79DF80430012161F318
:10DC30000303032161F307138DF80430D8E79DF83F
:10DC40000430022161F30303012161F307138DF80E
:10DC50000430CDE79DF80430022161F3030361F342
:10DC600007138DF80430C3E79DF80530012161F3F7
:10DC7000030361F307138DF805309DF80630917AA0
:10DC800061F3C3038DF80630D17A61F304138DF884
:10DC90000630117A61F30003927B002A14BF02223E
:10DCA000012262F342038DF80630E36903B10C935D
:10DCB000334604AA09A92846FFF737FE11B0F0BD84
:10DCC0009DF80530012161F30303022161F307137D
:10DCD0008DF80530D1E79DF80530012161F303038C
:10DCE000032161F307138DF80530C6E79DF8053071
:10DCF000022161F30303012161F307138DF805305D
:10DD0000BBE79DF80530022161F3030361F30713BC
:10DD10008DF80530B1E7A5DF7047B5DF70470346E2
:10DD200060B1C160F72202804280FB210171C28094
:10DD30001722028100209872D87270470E20704717
:10DD400038B1A1F117039BB2E02B04D80180002069
:10DD500070470E2070470720704700008388002B13
:10DD600040F0A58010B582B00C4603883A2B58D0FD
:10DD70000FD8102B32D0112B06D1F723CB801723CD
:10DD80000B8100238B72CB72A37A002B74D102B06B
:10DD900010BD552BF8D1C388C988172B38BF17235E
:10DDA0008B4228BF0B4623810020A072FFF7B5FFEE
:10DDB000002853D1E37A002BE6D1E368002BE3D0AF
:10DDC00040F67722ADF800200022ADF8022022892B
:10DDD000ADF80420694620469847D5E7C37B012B60
:10DDE00004BF0B88CB80C98823898B42CCD200200A
:10DDF000FFF791FF10B90123E372C5E7112802D1A3
:10DE00000123A372C0E7FDF7B3FA0246284B294964
:10DE10005B1ADB081B04284943F00100FBF71AFEDC
:10DE2000B2E74389CA88934228BF1346172B38BFED
:10DE300017230B81CA686AB1C97A59B140F67721B4
:10DE4000ADF800100021ADF80210ADF804306946BD
:10DE5000204690470023E372A37295E7FDF788FA06
:10DE60000246134B13495B1ADB081B04134943F0AA
:10DE70000100FBF7EFFD9DE7E1880020FFF74BFF76
:10DE800020B90023A3720123E37280E711283FF435
:10DE90007EAFFDF76DFA0246054B06495B1ADB08BB
:10DEA0001B04054943F00100FBF7D4FD6FE7704701
:10DEB0007475020024750200407D0200747D02002A
:10DEC000B0DF704766DF7047037A03B9704710B55B
:10DED000044600214088FFF7F5FF10B900232372A4
:10DEE00010BD112802D062689047F9E70123237220
:10DEF000F6E760B169B10278DE2A0CD00A684260A8
:10DF0000DE2202704FF6FF724280002070470E2022
:10DF100070470E2070470820704728B10278DE2A2B
:10DF200004D14180002070470E20704708207047C0
:10DF300000295ED030B585B004460D4658B10B7847
:10DF4000DE2B08D182884B889A4206D00388012BA9
:10DF50000DD0512B18D005B030BD0846FFF7B4FFE7
:10DF60002388112B29D0512B0ED0012BF3D1237AEA
:10DF7000012BF0D1A2886B889A42ECD101232B723D
:10DF80002846FFF7A1FFE6E7A0886B888342E2D12D
:10DF9000A379022BDFD1A37B03F0FD02042A14D066
:10DFA000052BD8D1002300930193029303930222FF
:10DFB0008DF80020ADF8043013E0A2886B889A42F7
:10DFC000C9D14FF6FF736B80C5E70023009301931F
:10DFD0000293039302238DF800304FF4C073ADF821
:10DFE00004306946FFF76CFF0028B4D06A68904798
:10DFF000B1E7704770B50546064C04F1100601E024
:10E00000B44206D054F8043B002BF9D02846984778
:10E01000F6E770BDD03100204388033300EB830363
:10E02000994209D382884FF6FF739A4206D000883E
:10E03000B0FA80F040097047022070470120704715
:10E0400068B10168094A91420BD14068084B984277
:10E0500009D00133984214BF0320012070470320E8
:10E060007047032070470020704700BFDEC0ADDE60
:10E07000FE011EF1033080B240F2FD3398422AD8EF
:10E0800010B4174B1B7843B9154A138952891344AE
:10E0900003449BB2B3F5806F10D3114B1B7DE3B9E2
:10E0A0000F4A938BD28B134403449BB2B3F5806F1A
:10E0B00028BF072012D201231C4601E000231C4682
:10E0C0000B80074BA200111903EB81014B89184407
:10E0D0004881002002E009207047072010BC7047EB
:10E0E0000432002008B5124B5B8803EB8301114A10
:10E0F00002EB8102D26872B90D4A0421117003EB60
:10E1000083030C4901EB83010023012249680A487B
:10E1100001F0D2F808BD064B05221A700749022308
:10E120008B80002301220968034801F0C5F8F1E75C
:10E13000E83100200432002000250020CC320020ED
:10E1400000B583B0002300930823044A04490968FA
:10E15000044800F0F1FF03B05DF804FBC07D02004D
:10E16000CC3200200025002000B583B001460023FA
:10E1700000930823034A044800F0DEFF03B05DF873
:10E1800004FB00BFB87D02000025002010B582B05E
:10E190000C46002300930423084A0146084800F077
:10E1A000CBFF40B904EB8404064901EB840401234E
:10E1B000237402B010BD0E20FBE700BFB47D020047
:10E1C000002500200432002030B583B009484268A1
:10E1D000094B9C881968538803339BB2032505704B
:10E1E000002000909B0001EB8401044800F0A4FF94
:10E1F00003B030BDE8310020CC32002000250020E3
:10E2000010B501460448FCF797FB04461C22002188
:10E2100008F09FFD204610BDB83200202DE9F843DC
:10E220000D46174600F5805600F1080402230B80C6
:10E230004FF00109DFF8548020E0A368D8F80020EF
:10E24000934212D9C8F800300FE04FF480632B805E
:10E250001AE031462046FFF7DFFE03460028ECD0E7
:10E260000FB187F80090022BEFD02B880333628820
:10E2700013442B806388033304EB8304B44203D23A
:10E280002368B3F1FF3FE4D1BDE8F883FC310020FF
:10E2900070B50E4600EB8000164B03EB8000436820
:10E2A00003F580550C6824B16388033304EB8304C1
:10E2B00018E003F1080415E03460012005E06388EC
:10E2C000033304EB83040DE0002070BD0020FCE765
:10E2D00029462046FFF7A0FE0128F0D00228F5D0FD
:10E2E0000028E9D0AC42EFD22368B3F1FF3FEFD171
:10E2F0000020EAE704320020F0B583B006460D4660
:10E3000043687BB1264AD26893420BD3244A1269F0
:10E31000934207D813F0030104D10089214A1289DE
:10E32000904215D000232B801F46019701A9288811
:10E33000FFF7AEFF014658B3019B9C6832689442D8
:10E34000F4D17360174B1B893381084603B0F0BDCD
:10E3500030689A689042E5D1134A5268934203D9D3
:10E3600002F5805293420BD30F4A926993420AD925
:10E3700002F58052934238BF012302D30A2103E001
:10E3800000232B8000E00A21B1FA81F14909DCE782
:10E390002B8801339BB22B80012BC6D9D5E700BF58
:10E3A00000250020E8310020043200202DE9F0474C
:10E3B0001D46244B1B78002B3CD00646884617464A
:10E3C000002A39D0002D39D0AC88012C38D8DFF89C
:10E3D0007C904FF0000A07E0C5F800A0AC8801343B
:10E3E000A4B2AC80012C23D804EB840419F82430A7
:10E3F000002BF3D12946A888FFF74AFF0028EBD06D
:10E400002B681EB1998832889142F3D1B8F1000F80
:10E4100004D01988B8F800209142EBD19B683B608A
:10E420002B687B60084B1B893B810020BDE8F0878F
:10E430000A20FBE70220F9E70520F7E70520F5E7CA
:10E440000A20F3E7E0310020E83100200432002008
:10E4500008B5064B191D5888FFF71AFF10B1FFF7D2
:10E46000B3FE08BDFFF73EFEFBE700BFE83100202A
:10E470002DE9F04389B00446AD4DAE4FAE4E7BE280
:10E4800039463046FCF792FA286079E23CB998F8B0
:10E490000430032B61D8DFE803F00711303CA74BB1
:10E4A00000225A600124CDE0012388F80430FFF7F0
:10E4B00047FE002851D109B0BDE8F083A04B1B787E
:10E4C000022B0DD09E4B1B7D022B08BF012108D0D3
:10E4D0009A4B01221A7000225A6041F61D54B1E095
:10E4E0000021974B8A005018002403F8204003EBCA
:10E4F00080035868FFF738FEDBE7002388F8043014
:10E50000904902228A80012209688F4800F0D4FED7
:10E51000CFE7002488F80440DFF82882D8F800000C
:10E52000FFF722FED8F800E0884B5B88DFF81092F6
:10E5300003EB830209EB82025168C8F80010C2F8AD
:10E5400004E0B8F804C0A2F808C00222A8F8042029
:10E5500003EB830309F82340ABE7784B00225A60B2
:10E560000E246FE0B8F814909CB909EB8903744944
:10E5700001EB83031C895B6803EB840498F8163075
:10E58000062B00F2C280DFE803F02E9F768C22B2C9
:10E59000C20098F81630022B0AD909EB8902684BA1
:10E5A00003EB8202B8F80630033311890B44138160
:10E5B000634A09EB890102EB8101B8F80630C3F523
:10E5C0007F43FD334A8913444B8101243AE060487C
:10E5D00000234360D8F8183003605E49FFF78CFED3
:10E5E000002800F02082022388F8163000230093D0
:10E5F000042308EB03022146534800F09DFD002848
:10E600003FF459AF0E2498F81630022B0AD909EBC3
:10E6100089024B4B03EB8202B8F8063003331189B1
:10E620000B441381464A09EB890102EB8101B8F8DA
:10E630000630C3F57F43FD334A8913444B81002CD8
:10E640003FF439AF0023039305930693079341F6F4
:10E650001D539C4208BF002404942A681378013B90
:10E66000052B00F27881DFE813F07301A101B001FE
:10E67000C301CF01DA01D8F81030002B14BF0323F7
:10E68000012388F8163000230093042308F10C02BC
:10E6900004F108012C4800F04FFD00283FF40BAFB7
:10E6A000B0E7012388F81630B8F80630D8F8102003
:10E6B000002100919B0004F10C01234800F03CFD77
:10E6C00000283FF4F8AE9DE7032A0CBF052306237C
:10E6D00088F8163000230093042308F10802E1189B
:10E6E000194800F029FD00283FF4E5AE8AE706232B
:10E6F00088F81630174B1988154B5868FFF746FDF8
:10E70000044600287FF47FAFD5E60F247BE741F66F
:10E710001D547CE7002C40F0888198F80430012BD0
:10E7200038D0022B00F00F81B3B10F248AE700BF6D
:10E7300000320020F8310020B8320020E031002003
:10E7400004320020CC32002000250020E8310020D7
:10E75000C4310020D8320020022388F8043000237E
:10E7600004930593D8F80C3003930DF10A0103A824
:10E77000FFF7C2FD08B90A2461E704988388A8F866
:10E7800006300388A8F80830BDF80A10FFF7FEFC31
:10E79000044654E7A74B03AA002108F10600FFF73F
:10E7A00005FE044658B9A34B99880498FFF7EEFC80
:10E7B00004460A287FF443AF41F61D5442E708227D
:10E7C00000219C4808F0C5FA41F61D530A2C08BFE9
:10E7D0001C4637E7002C40F02A81974B1B7B6BB11E
:10E7E000954B00221A731B78013B062B00F2AE807A
:10E7F000DFE803F022509FA3AC6978008E4B1B78B2
:10E80000072B7AD8DFE803F00479793C4A6B6B7503
:10E81000894B1A8901321A8100225A801A7387495A
:10E820000A78B2FA82F252099A720A7DB2FA82F238
:10E830005209DA7201221A707F4B9B7A4BB17E4BE0
:10E8400000229A727D4BDB681BB97C4B1B7C002B32
:10E8500068D1794BDB7A5BB1774B0022DA72774B68
:10E860001B6A2BB9754B93F824300122002B5AD127
:10E87000714B00221A705A805A6041F61D54E1E62D
:10E880006F496D4A50688B880333408803448B80FE
:10E8900002231370FFF7DCFD0446D0E6684AD2F885
:10E8A00000E0654C6388DFF894C103EB83000CEB58
:10E8B000800041681160C0F804E091880181022362
:10E8C0009380062323705C4B5B8803EB83035B4AD6
:10E8D00002EB83035868FFF747FC0446AFE6564B4C
:10E8E00007221A70544B00225A60FFF729FC044695
:10E8F000A5E6514B01221A709EE7013B062B20D85A
:10E9000001A252F823F000BF39E8010095E80100A8
:10E9100033E901003BE9010043E90100C7E80100D8
:10E92000E5E801000022444B5A80FFF791FD0446C0
:10E9300085E6FFF749FC044681E6FFF7D3FB044672
:10E940007DE60F247BE641F61D547BE60F2479E635
:10E9500000238DF80C3003A8FFF74CFB00232B603D
:10E9600039463046FCF74DF801213648FCF717F9D7
:10E9700000283FF4A0AD00242B68002B3FF480ADAD
:10E98000D5F8008098F80020531E052B5CD801A113
:10E9900051F823F08DE4010065E5010065E5010013
:10E9A00015E7010015E70100D5E7010001238DF807
:10E9B0000C301389ADF818309388ADF81A30D3684D
:10E9C000059300238DF81C30C5E702238DF80C3029
:10E9D0001389ADF818309388ADF81A30D3680593D1
:10E9E000937D062B14BF002301238DF81C30B2E762
:10E9F00003238DF80C30D388ADF818301389ADF8A7
:10EA00001A30D3680593A6E704238DF80C30D38819
:10EA1000ADF818300023ADF81A3005939BE70523B5
:10EA20008DF80C3097E70A240CE601240AE601244D
:10EA300008E600BFDC320020E8310020043200206C
:10EA4000CC320020C83200200023039305930693A4
:10EA500007930F2400E600BF08B54068FFF708FDE4
:10EA600008BD000008B501210348FCF77EF800B19D
:10EA700008BDFFF7FDFCFBE7C83200202DE9F0439D
:10EA800083B00C463D49097800296DD0054698466B
:10EA9000002C6BD021884FF6FF73994268D06388B1
:10EAA000002B67D0676817F0030765D1002A36D0BE
:10EAB0001388ADF80630B2F802906846FFF7A0FB65
:10EAC0000646002836D080F8008000238375BDF804
:10EAD000063083826368036101212948FCF752F8FC
